{
  "_format": "hh-sol-artifact-1",
  "contractName": "NFTCollectible",
  "sourceName": "contracts/NFTCollectible.sol",
  "abi": [
    {
      "inputs": [
        {
          "internalType": "string",
          "name": "baseURI",
          "type": "string"
        }
      ],
      "stateMutability": "nonpayable",
      "type": "constructor"
    },
    {
      "anonymous": false,
      "inputs": [
        {
          "indexed": true,
          "internalType": "address",
          "name": "owner",
          "type": "address"
        },
        {
          "indexed": true,
          "internalType": "address",
          "name": "approved",
          "type": "address"
        },
        {
          "indexed": true,
          "internalType": "uint256",
          "name": "tokenId",
          "type": "uint256"
        }
      ],
      "name": "Approval",
      "type": "event"
    },
    {
      "anonymous": false,
      "inputs": [
        {
          "indexed": true,
          "internalType": "address",
          "name": "owner",
          "type": "address"
        },
        {
          "indexed": true,
          "internalType": "address",
          "name": "operator",
          "type": "address"
        },
        {
          "indexed": false,
          "internalType": "bool",
          "name": "approved",
          "type": "bool"
        }
      ],
      "name": "ApprovalForAll",
      "type": "event"
    },
    {
      "anonymous": false,
      "inputs": [
        {
          "indexed": true,
          "internalType": "address",
          "name": "previousOwner",
          "type": "address"
        },
        {
          "indexed": true,
          "internalType": "address",
          "name": "newOwner",
          "type": "address"
        }
      ],
      "name": "OwnershipTransferred",
      "type": "event"
    },
    {
      "anonymous": false,
      "inputs": [
        {
          "indexed": true,
          "internalType": "address",
          "name": "from",
          "type": "address"
        },
        {
          "indexed": true,
          "internalType": "address",
          "name": "to",
          "type": "address"
        },
        {
          "indexed": true,
          "internalType": "uint256",
          "name": "tokenId",
          "type": "uint256"
        }
      ],
      "name": "Transfer",
      "type": "event"
    },
    {
      "inputs": [],
      "name": "MAX_PER_MINT",
      "outputs": [
        {
          "internalType": "uint256",
          "name": "",
          "type": "uint256"
        }
      ],
      "stateMutability": "view",
      "type": "function"
    },
    {
      "inputs": [],
      "name": "MAX_SUPPLY",
      "outputs": [
        {
          "internalType": "uint256",
          "name": "",
          "type": "uint256"
        }
      ],
      "stateMutability": "view",
      "type": "function"
    },
    {
      "inputs": [],
      "name": "PRICE",
      "outputs": [
        {
          "internalType": "uint256",
          "name": "",
          "type": "uint256"
        }
      ],
      "stateMutability": "view",
      "type": "function"
    },
    {
      "inputs": [
        {
          "internalType": "address",
          "name": "to",
          "type": "address"
        },
        {
          "internalType": "uint256",
          "name": "tokenId",
          "type": "uint256"
        }
      ],
      "name": "approve",
      "outputs": [],
      "stateMutability": "nonpayable",
      "type": "function"
    },
    {
      "inputs": [
        {
          "internalType": "address",
          "name": "owner",
          "type": "address"
        }
      ],
      "name": "balanceOf",
      "outputs": [
        {
          "internalType": "uint256",
          "name": "",
          "type": "uint256"
        }
      ],
      "stateMutability": "view",
      "type": "function"
    },
    {
      "inputs": [],
      "name": "baseTokenURI",
      "outputs": [
        {
          "internalType": "string",
          "name": "",
          "type": "string"
        }
      ],
      "stateMutability": "view",
      "type": "function"
    },
    {
      "inputs": [
        {
          "internalType": "uint256",
          "name": "tokenId",
          "type": "uint256"
        }
      ],
      "name": "getApproved",
      "outputs": [
        {
          "internalType": "address",
          "name": "",
          "type": "address"
        }
      ],
      "stateMutability": "view",
      "type": "function"
    },
    {
      "inputs": [
        {
          "internalType": "address",
          "name": "owner",
          "type": "address"
        },
        {
          "internalType": "address",
          "name": "operator",
          "type": "address"
        }
      ],
      "name": "isApprovedForAll",
      "outputs": [
        {
          "internalType": "bool",
          "name": "",
          "type": "bool"
        }
      ],
      "stateMutability": "view",
      "type": "function"
    },
    {
      "inputs": [
        {
          "internalType": "uint256",
          "name": "_count",
          "type": "uint256"
        }
      ],
      "name": "mintNFTs",
      "outputs": [],
      "stateMutability": "payable",
      "type": "function"
    },
    {
      "inputs": [],
      "name": "name",
      "outputs": [
        {
          "internalType": "string",
          "name": "",
          "type": "string"
        }
      ],
      "stateMutability": "view",
      "type": "function"
    },
    {
      "inputs": [],
      "name": "owner",
      "outputs": [
        {
          "internalType": "address",
          "name": "",
          "type": "address"
        }
      ],
      "stateMutability": "view",
      "type": "function"
    },
    {
      "inputs": [
        {
          "internalType": "uint256",
          "name": "tokenId",
          "type": "uint256"
        }
      ],
      "name": "ownerOf",
      "outputs": [
        {
          "internalType": "address",
          "name": "",
          "type": "address"
        }
      ],
      "stateMutability": "view",
      "type": "function"
    },
    {
      "inputs": [],
      "name": "renounceOwnership",
      "outputs": [],
      "stateMutability": "nonpayable",
      "type": "function"
    },
    {
      "inputs": [],
      "name": "reserveNFTs",
      "outputs": [],
      "stateMutability": "nonpayable",
      "type": "function"
    },
    {
      "inputs": [
        {
          "internalType": "address",
          "name": "from",
          "type": "address"
        },
        {
          "internalType": "address",
          "name": "to",
          "type": "address"
        },
        {
          "internalType": "uint256",
          "name": "tokenId",
          "type": "uint256"
        }
      ],
      "name": "safeTransferFrom",
      "outputs": [],
      "stateMutability": "nonpayable",
      "type": "function"
    },
    {
      "inputs": [
        {
          "internalType": "address",
          "name": "from",
          "type": "address"
        },
        {
          "internalType": "address",
          "name": "to",
          "type": "address"
        },
        {
          "internalType": "uint256",
          "name": "tokenId",
          "type": "uint256"
        },
        {
          "internalType": "bytes",
          "name": "_data",
          "type": "bytes"
        }
      ],
      "name": "safeTransferFrom",
      "outputs": [],
      "stateMutability": "nonpayable",
      "type": "function"
    },
    {
      "inputs": [
        {
          "internalType": "address",
          "name": "operator",
          "type": "address"
        },
        {
          "internalType": "bool",
          "name": "approved",
          "type": "bool"
        }
      ],
      "name": "setApprovalForAll",
      "outputs": [],
      "stateMutability": "nonpayable",
      "type": "function"
    },
    {
      "inputs": [
        {
          "internalType": "string",
          "name": "_baseTokenURI",
          "type": "string"
        }
      ],
      "name": "setBaseURI",
      "outputs": [],
      "stateMutability": "nonpayable",
      "type": "function"
    },
    {
      "inputs": [
        {
          "internalType": "bytes4",
          "name": "interfaceId",
          "type": "bytes4"
        }
      ],
      "name": "supportsInterface",
      "outputs": [
        {
          "internalType": "bool",
          "name": "",
          "type": "bool"
        }
      ],
      "stateMutability": "view",
      "type": "function"
    },
    {
      "inputs": [],
      "name": "symbol",
      "outputs": [
        {
          "internalType": "string",
          "name": "",
          "type": "string"
        }
      ],
      "stateMutability": "view",
      "type": "function"
    },
    {
      "inputs": [
        {
          "internalType": "uint256",
          "name": "index",
          "type": "uint256"
        }
      ],
      "name": "tokenByIndex",
      "outputs": [
        {
          "internalType": "uint256",
          "name": "",
          "type": "uint256"
        }
      ],
      "stateMutability": "view",
      "type": "function"
    },
    {
      "inputs": [
        {
          "internalType": "address",
          "name": "owner",
          "type": "address"
        },
        {
          "internalType": "uint256",
          "name": "index",
          "type": "uint256"
        }
      ],
      "name": "tokenOfOwnerByIndex",
      "outputs": [
        {
          "internalType": "uint256",
          "name": "",
          "type": "uint256"
        }
      ],
      "stateMutability": "view",
      "type": "function"
    },
    {
      "inputs": [
        {
          "internalType": "uint256",
          "name": "tokenId",
          "type": "uint256"
        }
      ],
      "name": "tokenURI",
      "outputs": [
        {
          "internalType": "string",
          "name": "",
          "type": "string"
        }
      ],
      "stateMutability": "view",
      "type": "function"
    },
    {
      "inputs": [
        {
          "internalType": "address",
          "name": "_owner",
          "type": "address"
        }
      ],
      "name": "tokensOfOwner",
      "outputs": [
        {
          "internalType": "uint256[]",
          "name": "",
          "type": "uint256[]"
        }
      ],
      "stateMutability": "view",
      "type": "function"
    },
    {
      "inputs": [],
      "name": "totalSupply",
      "outputs": [
        {
          "internalType": "uint256",
          "name": "",
          "type": "uint256"
        }
      ],
      "stateMutability": "view",
      "type": "function"
    },
    {
      "inputs": [
        {
          "internalType": "address",
          "name": "from",
          "type": "address"
        },
        {
          "internalType": "address",
          "name": "to",
          "type": "address"
        },
        {
          "internalType": "uint256",
          "name": "tokenId",
          "type": "uint256"
        }
      ],
      "name": "transferFrom",
      "outputs": [],
      "stateMutability": "nonpayable",
      "type": "function"
    },
    {
      "inputs": [
        {
          "internalType": "address",
          "name": "newOwner",
          "type": "address"
        }
      ],
      "name": "transferOwnership",
      "outputs": [],
      "stateMutability": "nonpayable",
      "type": "function"
    },
    {
      "inputs": [],
      "name": "withdraw",
      "outputs": [],
      "stateMutability": "payable",
      "type": "function"
    }
  ],
  "bytecode": "0x60806040523480156200001157600080fd5b5060405162004892380380620048928339818101604052810190620000379190620003d4565b6040518060400160405280600f81526020017f4e465420436f6c6c65637469626c6500000000000000000000000000000000008152506040518060400160405280600481526020017f4e465443000000000000000000000000000000000000000000000000000000008152508160009080519060200190620000bb929190620002b2565b508060019080519060200190620000d4929190620002b2565b505050620000f7620000eb6200010f60201b60201c565b6200011760201b60201c565b6200010881620001dd60201b60201c565b506200060c565b600033905090565b6000600a60009054906101000a900473ffffffffffffffffffffffffffffffffffffffff16905081600a60006101000a81548173ffffffffffffffffffffffffffffffffffffffff021916908373ffffffffffffffffffffffffffffffffffffffff1602179055508173ffffffffffffffffffffffffffffffffffffffff168173ffffffffffffffffffffffffffffffffffffffff167f8be0079c531659141344cd1fd0a4f28419497f9722a3daafe3b4186f6b6457e060405160405180910390a35050565b620001ed6200010f60201b60201c565b73ffffffffffffffffffffffffffffffffffffffff16620002136200028860201b60201c565b73ffffffffffffffffffffffffffffffffffffffff16146200026c576040517f08c379a0000000000000000000000000000000000000000000000000000000008152600401620002639062000440565b60405180910390fd5b80600c908051906020019062000284929190620002b2565b5050565b6000600a60009054906101000a900473ffffffffffffffffffffffffffffffffffffffff16905090565b828054620002c09062000508565b90600052602060002090601f016020900481019282620002e4576000855562000330565b82601f10620002ff57805160ff191683800117855562000330565b8280016001018555821562000330579182015b828111156200032f57825182559160200191906001019062000312565b5b5090506200033f919062000343565b5090565b5b808211156200035e57600081600090555060010162000344565b5090565b60006200037962000373846200048b565b62000462565b9050828152602081018484840111156200039257600080fd5b6200039f848285620004d2565b509392505050565b600082601f830112620003b957600080fd5b8151620003cb84826020860162000362565b91505092915050565b600060208284031215620003e757600080fd5b600082015167ffffffffffffffff8111156200040257600080fd5b6200041084828501620003a7565b91505092915050565b600062000428602083620004c1565b91506200043582620005e3565b602082019050919050565b600060208201905081810360008301526200045b8162000419565b9050919050565b60006200046e62000481565b90506200047c82826200053e565b919050565b6000604051905090565b600067ffffffffffffffff821115620004a957620004a8620005a3565b5b620004b482620005d2565b9050602081019050919050565b600082825260208201905092915050565b60005b83811015620004f2578082015181840152602081019050620004d5565b8381111562000502576000848401525b50505050565b600060028204905060018216806200052157607f821691505b6020821081141562000538576200053762000574565b5b50919050565b6200054982620005d2565b810181811067ffffffffffffffff821117156200056b576200056a620005a3565b5b80604052505050565b7f4e487b7100000000000000000000000000000000000000000000000000000000600052602260045260246000fd5b7f4e487b7100000000000000000000000000000000000000000000000000000000600052604160045260246000fd5b6000601f19601f8301169050919050565b7f4f776e61626c653a2063616c6c6572206973206e6f7420746865206f776e6572600082015250565b614276806200061c6000396000f3fe6080604052600436106101b75760003560e01c806355f804b3116100ec57806395d89b411161008a578063c87b56dd11610064578063c87b56dd146105de578063d547cfb71461061b578063e985e9c514610646578063f2fde38b14610683576101b7565b806395d89b4114610561578063a22cb4651461058c578063b88d4fde146105b5576101b7565b8063715018a6116100c6578063715018a6146104b75780638462151c146104ce5780638d859f3e1461050b5780638da5cb5b14610536576101b7565b806355f804b3146104145780636352211e1461043d57806370a082311461047a576101b7565b806323b872dd116101595780633b4b1381116101335780633b4b1381146103885780633ccfd60b146103a457806342842e0e146103ae5780634f6ccce7146103d7576101b7565b806323b872dd146102f75780632f745c591461032057806332cb6b0c1461035d576101b7565b8063095ea7b311610195578063095ea7b31461026157806309d42b301461028a578063144100c7146102b557806318160ddd146102cc576101b7565b806301ffc9a7146101bc57806306fdde03146101f9578063081812fc14610224575b600080fd5b3480156101c857600080fd5b506101e360048036038101906101de9190612d90565b6106ac565b6040516101f091906133ce565b60405180910390f35b34801561020557600080fd5b5061020e610726565b60405161021b91906133e9565b60405180910390f35b34801561023057600080fd5b5061024b60048036038101906102469190612e23565b6107b8565b6040516102589190613345565b60405180910390f35b34801561026d57600080fd5b5061028860048036038101906102839190612d54565b61083d565b005b34801561029657600080fd5b5061029f610955565b6040516102ac919061370b565b60405180910390f35b3480156102c157600080fd5b506102ca61095b565b005b3480156102d857600080fd5b506102e1610a67565b6040516102ee919061370b565b60405180910390f35b34801561030357600080fd5b5061031e60048036038101906103199190612c4e565b610a74565b005b34801561032c57600080fd5b5061034760048036038101906103429190612d54565b610ad4565b604051610354919061370b565b60405180910390f35b34801561036957600080fd5b50610372610b79565b60405161037f919061370b565b60405180910390f35b6103a2600480360381019061039d9190612e23565b610b7f565b005b6103ac610cbc565b005b3480156103ba57600080fd5b506103d560048036038101906103d09190612c4e565b610e30565b005b3480156103e357600080fd5b506103fe60048036038101906103f99190612e23565b610e50565b60405161040b919061370b565b60405180910390f35b34801561042057600080fd5b5061043b60048036038101906104369190612de2565b610ee7565b005b34801561044957600080fd5b50610464600480360381019061045f9190612e23565b610f7d565b6040516104719190613345565b60405180910390f35b34801561048657600080fd5b506104a1600480360381019061049c9190612be9565b61102f565b6040516104ae919061370b565b60405180910390f35b3480156104c357600080fd5b506104cc6110e7565b005b3480156104da57600080fd5b506104f560048036038101906104f09190612be9565b61116f565b60405161050291906133ac565b60405180910390f35b34801561051757600080fd5b50610520611269565b60405161052d919061370b565b60405180910390f35b34801561054257600080fd5b5061054b611274565b6040516105589190613345565b60405180910390f35b34801561056d57600080fd5b5061057661129e565b60405161058391906133e9565b60405180910390f35b34801561059857600080fd5b506105b360048036038101906105ae9190612d18565b611330565b005b3480156105c157600080fd5b506105dc60048036038101906105d79190612c9d565b611346565b005b3480156105ea57600080fd5b5061060560048036038101906106009190612e23565b6113a8565b60405161061291906133e9565b60405180910390f35b34801561062757600080fd5b5061063061144f565b60405161063d91906133e9565b60405180910390f35b34801561065257600080fd5b5061066d60048036038101906106689190612c12565b6114dd565b60405161067a91906133ce565b60405180910390f35b34801561068f57600080fd5b506106aa60048036038101906106a59190612be9565b611571565b005b60007f780e9d63000000000000000000000000000000000000000000000000000000007bffffffffffffffffffffffffffffffffffffffffffffffffffffffff1916827bffffffffffffffffffffffffffffffffffffffffffffffffffffffff1916148061071f575061071e82611669565b5b9050919050565b606060008054610735906139ff565b80601f0160208091040260200160405190810160405280929190818152602001828054610761906139ff565b80156107ae5780601f10610783576101008083540402835291602001916107ae565b820191906000526020600020905b81548152906001019060200180831161079157829003601f168201915b5050505050905090565b60006107c38261174b565b610802576040517f08c379a00000000000000000000000000000000000000000000000000000000081526004016107f99061362b565b60405180910390fd5b6004600083815260200190815260200160002060009054906101000a900473ffffffffffffffffffffffffffffffffffffffff169050919050565b600061084882610f7d565b90508073ffffffffffffffffffffffffffffffffffffffff168373ffffffffffffffffffffffffffffffffffffffff1614156108b9576040517f08c379a00000000000000000000000000000000000000000000000000000000081526004016108b09061368b565b60405180910390fd5b8073ffffffffffffffffffffffffffffffffffffffff166108d86117b7565b73ffffffffffffffffffffffffffffffffffffffff1614806109075750610906816109016117b7565b6114dd565b5b610946576040517f08c379a000000000000000000000000000000000000000000000000000000000815260040161093d9061356b565b60405180910390fd5b61095083836117bf565b505050565b61271081565b6109636117b7565b73ffffffffffffffffffffffffffffffffffffffff16610981611274565b73ffffffffffffffffffffffffffffffffffffffff16146109d7576040517f08c379a00000000000000000000000000000000000000000000000000000000081526004016109ce9061364b565b60405180910390fd5b60006109e3600b611878565b90506127106109fc60038361188690919063ffffffff16565b10610a3c576040517f08c379a0000000000000000000000000000000000000000000000000000000008152600401610a33906135cb565b60405180910390fd5b60005b6003811015610a6357610a5061189c565b8080610a5b90613a62565b915050610a3f565b5050565b6000600880549050905090565b610a85610a7f6117b7565b826118c1565b610ac4576040517f08c379a0000000000000000000000000000000000000000000000000000000008152600401610abb906136cb565b60405180910390fd5b610acf83838361199f565b505050565b6000610adf8361102f565b8210610b20576040517f08c379a0000000000000000000000000000000000000000000000000000000008152600401610b179061342b565b60405180910390fd5b600660008473ffffffffffffffffffffffffffffffffffffffff1673ffffffffffffffffffffffffffffffffffffffff168152602001908152602001600020600083815260200190815260200160002054905092915050565b61271081565b6000610b8b600b611878565b9050612710610ba3838361188690919063ffffffff16565b1115610be4576040517f08c379a0000000000000000000000000000000000000000000000000000000008152600401610bdb9061340b565b60405180910390fd5b600082118015610bf657506127108211155b610c35576040517f08c379a0000000000000000000000000000000000000000000000000000000008152600401610c2c9061352b565b60405180910390fd5b610c4f82662386f26fc10000611c0690919063ffffffff16565b341015610c91576040517f08c379a0000000000000000000000000000000000000000000000000000000008152600401610c889061350b565b60405180910390fd5b60005b82811015610cb757610ca461189c565b8080610caf90613a62565b915050610c94565b505050565b610cc46117b7565b73ffffffffffffffffffffffffffffffffffffffff16610ce2611274565b73ffffffffffffffffffffffffffffffffffffffff1614610d38576040517f08c379a0000000000000000000000000000000000000000000000000000000008152600401610d2f9061364b565b60405180910390fd5b600047905060008111610d80576040517f08c379a0000000000000000000000000000000000000000000000000000000008152600401610d779061360b565b60405180910390fd5b60003373ffffffffffffffffffffffffffffffffffffffff1682604051610da690613330565b60006040518083038185875af1925050503d8060008114610de3576040519150601f19603f3d011682016040523d82523d6000602084013e610de8565b606091505b5050905080610e2c576040517f08c379a0000000000000000000000000000000000000000000000000000000008152600401610e23906136ab565b60405180910390fd5b5050565b610e4b83838360405180602001604052806000815250611346565b505050565b6000610e5a610a67565b8210610e9b576040517f08c379a0000000000000000000000000000000000000000000000000000000008152600401610e92906136eb565b60405180910390fd5b60088281548110610ed5577f4e487b7100000000000000000000000000000000000000000000000000000000600052603260045260246000fd5b90600052602060002001549050919050565b610eef6117b7565b73ffffffffffffffffffffffffffffffffffffffff16610f0d611274565b73ffffffffffffffffffffffffffffffffffffffff1614610f63576040517f08c379a0000000000000000000000000000000000000000000000000000000008152600401610f5a9061364b565b60405180910390fd5b80600c9080519060200190610f79929190612a0d565b5050565b6000806002600084815260200190815260200160002060009054906101000a900473ffffffffffffffffffffffffffffffffffffffff169050600073ffffffffffffffffffffffffffffffffffffffff168173ffffffffffffffffffffffffffffffffffffffff161415611026576040517f08c379a000000000000000000000000000000000000000000000000000000000815260040161101d906135ab565b60405180910390fd5b80915050919050565b60008073ffffffffffffffffffffffffffffffffffffffff168273ffffffffffffffffffffffffffffffffffffffff1614156110a0576040517f08c379a00000000000000000000000000000000000000000000000000000000081526004016110979061358b565b60405180910390fd5b600360008373ffffffffffffffffffffffffffffffffffffffff1673ffffffffffffffffffffffffffffffffffffffff168152602001908152602001600020549050919050565b6110ef6117b7565b73ffffffffffffffffffffffffffffffffffffffff1661110d611274565b73ffffffffffffffffffffffffffffffffffffffff1614611163576040517f08c379a000000000000000000000000000000000000000000000000000000000815260040161115a9061364b565b60405180910390fd5b61116d6000611c1c565b565b6060600061117c8361102f565b905060008167ffffffffffffffff8111156111c0577f4e487b7100000000000000000000000000000000000000000000000000000000600052604160045260246000fd5b6040519080825280602002602001820160405280156111ee5781602001602082028036833780820191505090505b50905060005b8281101561125e576112068582610ad4565b82828151811061123f577f4e487b7100000000000000000000000000000000000000000000000000000000600052603260045260246000fd5b602002602001018181525050808061125690613a62565b9150506111f4565b508092505050919050565b662386f26fc1000081565b6000600a60009054906101000a900473ffffffffffffffffffffffffffffffffffffffff16905090565b6060600180546112ad906139ff565b80601f01602080910402602001604051908101604052809291908181526020018280546112d9906139ff565b80156113265780601f106112fb57610100808354040283529160200191611326565b820191906000526020600020905b81548152906001019060200180831161130957829003601f168201915b5050505050905090565b61134261133b6117b7565b8383611ce2565b5050565b6113576113516117b7565b836118c1565b611396576040517f08c379a000000000000000000000000000000000000000000000000000000000815260040161138d906136cb565b60405180910390fd5b6113a284848484611e4f565b50505050565b60606113b38261174b565b6113f2576040517f08c379a00000000000000000000000000000000000000000000000000000000081526004016113e99061366b565b60405180910390fd5b60006113fc611eab565b9050600081511161141c5760405180602001604052806000815250611447565b8061142684611f3d565b60405160200161143792919061330c565b6040516020818303038152906040525b915050919050565b600c805461145c906139ff565b80601f0160208091040260200160405190810160405280929190818152602001828054611488906139ff565b80156114d55780601f106114aa576101008083540402835291602001916114d5565b820191906000526020600020905b8154815290600101906020018083116114b857829003601f168201915b505050505081565b6000600560008473ffffffffffffffffffffffffffffffffffffffff1673ffffffffffffffffffffffffffffffffffffffff16815260200190815260200160002060008373ffffffffffffffffffffffffffffffffffffffff1673ffffffffffffffffffffffffffffffffffffffff16815260200190815260200160002060009054906101000a900460ff16905092915050565b6115796117b7565b73ffffffffffffffffffffffffffffffffffffffff16611597611274565b73ffffffffffffffffffffffffffffffffffffffff16146115ed576040517f08c379a00000000000000000000000000000000000000000000000000000000081526004016115e49061364b565b60405180910390fd5b600073ffffffffffffffffffffffffffffffffffffffff168173ffffffffffffffffffffffffffffffffffffffff16141561165d576040517f08c379a00000000000000000000000000000000000000000000000000000000081526004016116549061346b565b60405180910390fd5b61166681611c1c565b50565b60007f80ac58cd000000000000000000000000000000000000000000000000000000007bffffffffffffffffffffffffffffffffffffffffffffffffffffffff1916827bffffffffffffffffffffffffffffffffffffffffffffffffffffffff1916148061173457507f5b5e139f000000000000000000000000000000000000000000000000000000007bffffffffffffffffffffffffffffffffffffffffffffffffffffffff1916827bffffffffffffffffffffffffffffffffffffffffffffffffffffffff1916145b806117445750611743826120ea565b5b9050919050565b60008073ffffffffffffffffffffffffffffffffffffffff166002600084815260200190815260200160002060009054906101000a900473ffffffffffffffffffffffffffffffffffffffff1673ffffffffffffffffffffffffffffffffffffffff1614159050919050565b600033905090565b816004600083815260200190815260200160002060006101000a81548173ffffffffffffffffffffffffffffffffffffffff021916908373ffffffffffffffffffffffffffffffffffffffff160217905550808273ffffffffffffffffffffffffffffffffffffffff1661183283610f7d565b73ffffffffffffffffffffffffffffffffffffffff167f8c5be1e5ebec7d5bd14f71427d1e84f3dd0314c0f7b2291e5b200ac8c7c3b92560405160405180910390a45050565b600081600001549050919050565b600081836118949190613834565b905092915050565b60006118a8600b611878565b90506118b43382612154565b6118be600b612172565b50565b60006118cc8261174b565b61190b576040517f08c379a00000000000000000000000000000000000000000000000000000000081526004016119029061354b565b60405180910390fd5b600061191683610f7d565b90508073ffffffffffffffffffffffffffffffffffffffff168473ffffffffffffffffffffffffffffffffffffffff16148061198557508373ffffffffffffffffffffffffffffffffffffffff1661196d846107b8565b73ffffffffffffffffffffffffffffffffffffffff16145b80611996575061199581856114dd565b5b91505092915050565b8273ffffffffffffffffffffffffffffffffffffffff166119bf82610f7d565b73ffffffffffffffffffffffffffffffffffffffff1614611a15576040517f08c379a0000000000000000000000000000000000000000000000000000000008152600401611a0c9061348b565b60405180910390fd5b600073ffffffffffffffffffffffffffffffffffffffff168273ffffffffffffffffffffffffffffffffffffffff161415611a85576040517f08c379a0000000000000000000000000000000000000000000000000000000008152600401611a7c906134cb565b60405180910390fd5b611a90838383612188565b611a9b6000826117bf565b6001600360008573ffffffffffffffffffffffffffffffffffffffff1673ffffffffffffffffffffffffffffffffffffffff1681526020019081526020016000206000828254611aeb9190613915565b925050819055506001600360008473ffffffffffffffffffffffffffffffffffffffff1673ffffffffffffffffffffffffffffffffffffffff1681526020019081526020016000206000828254611b429190613834565b92505081905550816002600083815260200190815260200160002060006101000a81548173ffffffffffffffffffffffffffffffffffffffff021916908373ffffffffffffffffffffffffffffffffffffffff160217905550808273ffffffffffffffffffffffffffffffffffffffff168473ffffffffffffffffffffffffffffffffffffffff167fddf252ad1be2c89b69c2b068fc378daa952ba7f163c4a11628f55a4df523b3ef60405160405180910390a4611c0183838361229c565b505050565b60008183611c1491906138bb565b905092915050565b6000600a60009054906101000a900473ffffffffffffffffffffffffffffffffffffffff16905081600a60006101000a81548173ffffffffffffffffffffffffffffffffffffffff021916908373ffffffffffffffffffffffffffffffffffffffff1602179055508173ffffffffffffffffffffffffffffffffffffffff168173ffffffffffffffffffffffffffffffffffffffff167f8be0079c531659141344cd1fd0a4f28419497f9722a3daafe3b4186f6b6457e060405160405180910390a35050565b8173ffffffffffffffffffffffffffffffffffffffff168373ffffffffffffffffffffffffffffffffffffffff161415611d51576040517f08c379a0000000000000000000000000000000000000000000000000000000008152600401611d48906134eb565b60405180910390fd5b80600560008573ffffffffffffffffffffffffffffffffffffffff1673ffffffffffffffffffffffffffffffffffffffff16815260200190815260200160002060008473ffffffffffffffffffffffffffffffffffffffff1673ffffffffffffffffffffffffffffffffffffffff16815260200190815260200160002060006101000a81548160ff0219169083151502179055508173ffffffffffffffffffffffffffffffffffffffff168373ffffffffffffffffffffffffffffffffffffffff167f17307eab39ab6107e8899845ad3d59bd9653f200f220920489ca2b5937696c3183604051611e4291906133ce565b60405180910390a3505050565b611e5a84848461199f565b611e66848484846122a1565b611ea5576040517f08c379a0000000000000000000000000000000000000000000000000000000008152600401611e9c9061344b565b60405180910390fd5b50505050565b6060600c8054611eba906139ff565b80601f0160208091040260200160405190810160405280929190818152602001828054611ee6906139ff565b8015611f335780601f10611f0857610100808354040283529160200191611f33565b820191906000526020600020905b815481529060010190602001808311611f1657829003601f168201915b5050505050905090565b60606000821415611f85576040518060400160405280600181526020017f300000000000000000000000000000000000000000000000000000000000000081525090506120e5565b600082905060005b60008214611fb7578080611fa090613a62565b915050600a82611fb0919061388a565b9150611f8d565b60008167ffffffffffffffff811115611ff9577f4e487b7100000000000000000000000000000000000000000000000000000000600052604160045260246000fd5b6040519080825280601f01601f19166020018201604052801561202b5781602001600182028036833780820191505090505b5090505b600085146120de576001826120449190613915565b9150600a856120539190613aab565b603061205f9190613834565b60f81b81838151811061209b577f4e487b7100000000000000000000000000000000000000000000000000000000600052603260045260246000fd5b60200101907effffffffffffffffffffffffffffffffffffffffffffffffffffffffffffff1916908160001a905350600a856120d7919061388a565b945061202f565b8093505050505b919050565b60007f01ffc9a7000000000000000000000000000000000000000000000000000000007bffffffffffffffffffffffffffffffffffffffffffffffffffffffff1916827bffffffffffffffffffffffffffffffffffffffffffffffffffffffff1916149050919050565b61216e828260405180602001604052806000815250612438565b5050565b6001816000016000828254019250508190555050565b612193838383612493565b600073ffffffffffffffffffffffffffffffffffffffff168373ffffffffffffffffffffffffffffffffffffffff1614156121d6576121d181612498565b612215565b8173ffffffffffffffffffffffffffffffffffffffff168373ffffffffffffffffffffffffffffffffffffffff16146122145761221383826124e1565b5b5b600073ffffffffffffffffffffffffffffffffffffffff168273ffffffffffffffffffffffffffffffffffffffff161415612258576122538161264e565b612297565b8273ffffffffffffffffffffffffffffffffffffffff168273ffffffffffffffffffffffffffffffffffffffff1614612296576122958282612791565b5b5b505050565b505050565b60006122c28473ffffffffffffffffffffffffffffffffffffffff16612810565b1561242b578373ffffffffffffffffffffffffffffffffffffffff1663150b7a026122eb6117b7565b8786866040518563ffffffff1660e01b815260040161230d9493929190613360565b602060405180830381600087803b15801561232757600080fd5b505af192505050801561235857506040513d601f19601f820116820180604052508101906123559190612db9565b60015b6123db573d8060008114612388576040519150601f19603f3d011682016040523d82523d6000602084013e61238d565b606091505b506000815114156123d3576040517f08c379a00000000000000000000000000000000000000000000000000000000081526004016123ca9061344b565b60405180910390fd5b805181602001fd5b63150b7a0260e01b7bffffffffffffffffffffffffffffffffffffffffffffffffffffffff1916817bffffffffffffffffffffffffffffffffffffffffffffffffffffffff191614915050612430565b600190505b949350505050565b6124428383612833565b61244f60008484846122a1565b61248e576040517f08c379a00000000000000000000000000000000000000000000000000000000081526004016124859061344b565b60405180910390fd5b505050565b505050565b6008805490506009600083815260200190815260200160002081905550600881908060018154018082558091505060019003906000526020600020016000909190919091505550565b600060016124ee8461102f565b6124f89190613915565b90506000600760008481526020019081526020016000205490508181146125dd576000600660008673ffffffffffffffffffffffffffffffffffffffff1673ffffffffffffffffffffffffffffffffffffffff168152602001908152602001600020600084815260200190815260200160002054905080600660008773ffffffffffffffffffffffffffffffffffffffff1673ffffffffffffffffffffffffffffffffffffffff168152602001908152602001600020600084815260200190815260200160002081905550816007600083815260200190815260200160002081905550505b6007600084815260200190815260200160002060009055600660008573ffffffffffffffffffffffffffffffffffffffff1673ffffffffffffffffffffffffffffffffffffffff16815260200190815260200160002060008381526020019081526020016000206000905550505050565b600060016008805490506126629190613915565b90506000600960008481526020019081526020016000205490506000600883815481106126b8577f4e487b7100000000000000000000000000000000000000000000000000000000600052603260045260246000fd5b906000526020600020015490508060088381548110612700577f4e487b7100000000000000000000000000000000000000000000000000000000600052603260045260246000fd5b906000526020600020018190555081600960008381526020019081526020016000208190555060096000858152602001908152602001600020600090556008805480612775577f4e487b7100000000000000000000000000000000000000000000000000000000600052603160045260246000fd5b6001900381819060005260206000200160009055905550505050565b600061279c8361102f565b905081600660008573ffffffffffffffffffffffffffffffffffffffff1673ffffffffffffffffffffffffffffffffffffffff168152602001908152602001600020600083815260200190815260200160002081905550806007600084815260200190815260200160002081905550505050565b6000808273ffffffffffffffffffffffffffffffffffffffff163b119050919050565b600073ffffffffffffffffffffffffffffffffffffffff168273ffffffffffffffffffffffffffffffffffffffff1614156128a3576040517f08c379a000000000000000000000000000000000000000000000000000000000815260040161289a906135eb565b60405180910390fd5b6128ac8161174b565b156128ec576040517f08c379a00000000000000000000000000000000000000000000000000000000081526004016128e3906134ab565b60405180910390fd5b6128f860008383612188565b6001600360008473ffffffffffffffffffffffffffffffffffffffff1673ffffffffffffffffffffffffffffffffffffffff16815260200190815260200160002060008282546129489190613834565b92505081905550816002600083815260200190815260200160002060006101000a81548173ffffffffffffffffffffffffffffffffffffffff021916908373ffffffffffffffffffffffffffffffffffffffff160217905550808273ffffffffffffffffffffffffffffffffffffffff16600073ffffffffffffffffffffffffffffffffffffffff167fddf252ad1be2c89b69c2b068fc378daa952ba7f163c4a11628f55a4df523b3ef60405160405180910390a4612a096000838361229c565b5050565b828054612a19906139ff565b90600052602060002090601f016020900481019282612a3b5760008555612a82565b82601f10612a5457805160ff1916838001178555612a82565b82800160010185558215612a82579182015b82811115612a81578251825591602001919060010190612a66565b5b509050612a8f9190612a93565b5090565b5b80821115612aac576000816000905550600101612a94565b5090565b6000612ac3612abe8461374b565b613726565b905082815260208101848484011115612adb57600080fd5b612ae68482856139bd565b509392505050565b6000612b01612afc8461377c565b613726565b905082815260208101848484011115612b1957600080fd5b612b248482856139bd565b509392505050565b600081359050612b3b816141e4565b92915050565b600081359050612b50816141fb565b92915050565b600081359050612b6581614212565b92915050565b600081519050612b7a81614212565b92915050565b600082601f830112612b9157600080fd5b8135612ba1848260208601612ab0565b91505092915050565b600082601f830112612bbb57600080fd5b8135612bcb848260208601612aee565b91505092915050565b600081359050612be381614229565b92915050565b600060208284031215612bfb57600080fd5b6000612c0984828501612b2c565b91505092915050565b60008060408385031215612c2557600080fd5b6000612c3385828601612b2c565b9250506020612c4485828601612b2c565b9150509250929050565b600080600060608486031215612c6357600080fd5b6000612c7186828701612b2c565b9350506020612c8286828701612b2c565b9250506040612c9386828701612bd4565b9150509250925092565b60008060008060808587031215612cb357600080fd5b6000612cc187828801612b2c565b9450506020612cd287828801612b2c565b9350506040612ce387828801612bd4565b925050606085013567ffffffffffffffff811115612d0057600080fd5b612d0c87828801612b80565b91505092959194509250565b60008060408385031215612d2b57600080fd5b6000612d3985828601612b2c565b9250506020612d4a85828601612b41565b9150509250929050565b60008060408385031215612d6757600080fd5b6000612d7585828601612b2c565b9250506020612d8685828601612bd4565b9150509250929050565b600060208284031215612da257600080fd5b6000612db084828501612b56565b91505092915050565b600060208284031215612dcb57600080fd5b6000612dd984828501612b6b565b91505092915050565b600060208284031215612df457600080fd5b600082013567ffffffffffffffff811115612e0e57600080fd5b612e1a84828501612baa565b91505092915050565b600060208284031215612e3557600080fd5b6000612e4384828501612bd4565b91505092915050565b6000612e5883836132ee565b60208301905092915050565b612e6d81613949565b82525050565b6000612e7e826137bd565b612e8881856137eb565b9350612e93836137ad565b8060005b83811015612ec4578151612eab8882612e4c565b9750612eb6836137de565b925050600181019050612e97565b5085935050505092915050565b612eda8161395b565b82525050565b6000612eeb826137c8565b612ef581856137fc565b9350612f058185602086016139cc565b612f0e81613b98565b840191505092915050565b6000612f24826137d3565b612f2e8185613818565b9350612f3e8185602086016139cc565b612f4781613b98565b840191505092915050565b6000612f5d826137d3565b612f678185613829565b9350612f778185602086016139cc565b80840191505092915050565b6000612f90601083613818565b9150612f9b82613ba9565b602082019050919050565b6000612fb3602b83613818565b9150612fbe82613bd2565b604082019050919050565b6000612fd6603283613818565b9150612fe182613c21565b604082019050919050565b6000612ff9602683613818565b915061300482613c70565b604082019050919050565b600061301c602583613818565b915061302782613cbf565b604082019050919050565b600061303f601c83613818565b915061304a82613d0e565b602082019050919050565b6000613062602483613818565b915061306d82613d37565b604082019050919050565b6000613085601983613818565b915061309082613d86565b602082019050919050565b60006130a8602283613818565b91506130b382613daf565b604082019050919050565b60006130cb602583613818565b91506130d682613dfe565b604082019050919050565b60006130ee602c83613818565b91506130f982613e4d565b604082019050919050565b6000613111603883613818565b915061311c82613e9c565b604082019050919050565b6000613134602a83613818565b915061313f82613eeb565b604082019050919050565b6000613157602983613818565b915061316282613f3a565b604082019050919050565b600061317a600f83613818565b915061318582613f89565b602082019050919050565b600061319d602083613818565b91506131a882613fb2565b602082019050919050565b60006131c0601983613818565b91506131cb82613fdb565b602082019050919050565b60006131e3602c83613818565b91506131ee82614004565b604082019050919050565b6000613206602083613818565b915061321182614053565b602082019050919050565b6000613229602f83613818565b91506132348261407c565b604082019050919050565b600061324c602183613818565b9150613257826140cb565b604082019050919050565b600061326f60008361380d565b915061327a8261411a565b600082019050919050565b6000613292601083613818565b915061329d8261411d565b602082019050919050565b60006132b5603183613818565b91506132c082614146565b604082019050919050565b60006132d8602c83613818565b91506132e382614195565b604082019050919050565b6132f7816139b3565b82525050565b613306816139b3565b82525050565b60006133188285612f52565b91506133248284612f52565b91508190509392505050565b600061333b82613262565b9150819050919050565b600060208201905061335a6000830184612e64565b92915050565b60006080820190506133756000830187612e64565b6133826020830186612e64565b61338f60408301856132fd565b81810360608301526133a18184612ee0565b905095945050505050565b600060208201905081810360008301526133c68184612e73565b905092915050565b60006020820190506133e36000830184612ed1565b92915050565b600060208201905081810360008301526134038184612f19565b905092915050565b6000602082019050818103600083015261342481612f83565b9050919050565b6000602082019050818103600083015261344481612fa6565b9050919050565b6000602082019050818103600083015261346481612fc9565b9050919050565b6000602082019050818103600083015261348481612fec565b9050919050565b600060208201905081810360008301526134a48161300f565b9050919050565b600060208201905081810360008301526134c481613032565b9050919050565b600060208201905081810360008301526134e481613055565b9050919050565b6000602082019050818103600083015261350481613078565b9050919050565b600060208201905081810360008301526135248161309b565b9050919050565b60006020820190508181036000830152613544816130be565b9050919050565b60006020820190508181036000830152613564816130e1565b9050919050565b6000602082019050818103600083015261358481613104565b9050919050565b600060208201905081810360008301526135a481613127565b9050919050565b600060208201905081810360008301526135c48161314a565b9050919050565b600060208201905081810360008301526135e48161316d565b9050919050565b6000602082019050818103600083015261360481613190565b9050919050565b60006020820190508181036000830152613624816131b3565b9050919050565b60006020820190508181036000830152613644816131d6565b9050919050565b60006020820190508181036000830152613664816131f9565b9050919050565b600060208201905081810360008301526136848161321c565b9050919050565b600060208201905081810360008301526136a48161323f565b9050919050565b600060208201905081810360008301526136c481613285565b9050919050565b600060208201905081810360008301526136e4816132a8565b9050919050565b60006020820190508181036000830152613704816132cb565b9050919050565b600060208201905061372060008301846132fd565b92915050565b6000613730613741565b905061373c8282613a31565b919050565b6000604051905090565b600067ffffffffffffffff82111561376657613765613b69565b5b61376f82613b98565b9050602081019050919050565b600067ffffffffffffffff82111561379757613796613b69565b5b6137a082613b98565b9050602081019050919050565b6000819050602082019050919050565b600081519050919050565b600081519050919050565b600081519050919050565b6000602082019050919050565b600082825260208201905092915050565b600082825260208201905092915050565b600081905092915050565b600082825260208201905092915050565b600081905092915050565b600061383f826139b3565b915061384a836139b3565b9250827fffffffffffffffffffffffffffffffffffffffffffffffffffffffffffffffff0382111561387f5761387e613adc565b5b828201905092915050565b6000613895826139b3565b91506138a0836139b3565b9250826138b0576138af613b0b565b5b828204905092915050565b60006138c6826139b3565b91506138d1836139b3565b9250817fffffffffffffffffffffffffffffffffffffffffffffffffffffffffffffffff048311821515161561390a57613909613adc565b5b828202905092915050565b6000613920826139b3565b915061392b836139b3565b92508282101561393e5761393d613adc565b5b828203905092915050565b600061395482613993565b9050919050565b60008115159050919050565b60007fffffffff0000000000000000000000000000000000000000000000000000000082169050919050565b600073ffffffffffffffffffffffffffffffffffffffff82169050919050565b6000819050919050565b82818337600083830152505050565b60005b838110156139ea5780820151818401526020810190506139cf565b838111156139f9576000848401525b50505050565b60006002820490506001821680613a1757607f821691505b60208210811415613a2b57613a2a613b3a565b5b50919050565b613a3a82613b98565b810181811067ffffffffffffffff82111715613a5957613a58613b69565b5b80604052505050565b6000613a6d826139b3565b91507fffffffffffffffffffffffffffffffffffffffffffffffffffffffffffffffff821415613aa057613a9f613adc565b5b600182019050919050565b6000613ab6826139b3565b9150613ac1836139b3565b925082613ad157613ad0613b0b565b5b828206905092915050565b7f4e487b7100000000000000000000000000000000000000000000000000000000600052601160045260246000fd5b7f4e487b7100000000000000000000000000000000000000000000000000000000600052601260045260246000fd5b7f4e487b7100000000000000000000000000000000000000000000000000000000600052602260045260246000fd5b7f4e487b7100000000000000000000000000000000000000000000000000000000600052604160045260246000fd5b6000601f19601f8301169050919050565b7f4e6f7420656e6f756768204e4654732100000000000000000000000000000000600082015250565b7f455243373231456e756d657261626c653a206f776e657220696e646578206f7560008201527f74206f6620626f756e6473000000000000000000000000000000000000000000602082015250565b7f4552433732313a207472616e7366657220746f206e6f6e20455243373231526560008201527f63656976657220696d706c656d656e7465720000000000000000000000000000602082015250565b7f4f776e61626c653a206e6577206f776e657220697320746865207a65726f206160008201527f6464726573730000000000000000000000000000000000000000000000000000602082015250565b7f4552433732313a207472616e736665722066726f6d20696e636f72726563742060008201527f6f776e6572000000000000000000000000000000000000000000000000000000602082015250565b7f4552433732313a20746f6b656e20616c7265616479206d696e74656400000000600082015250565b7f4552433732313a207472616e7366657220746f20746865207a65726f2061646460008201527f7265737300000000000000000000000000000000000000000000000000000000602082015250565b7f4552433732313a20617070726f766520746f2063616c6c657200000000000000600082015250565b7f4e6f7420656e6f75676820657468657220746f207075726368617365204e465460008201527f732e000000000000000000000000000000000000000000000000000000000000602082015250565b7f43616e6e6f74206d696e7420737065636966696564206e756d626572206f662060008201527f4e4654732e000000000000000000000000000000000000000000000000000000602082015250565b7f4552433732313a206f70657261746f7220717565727920666f72206e6f6e657860008201527f697374656e7420746f6b656e0000000000000000000000000000000000000000602082015250565b7f4552433732313a20617070726f76652063616c6c6572206973206e6f74206f7760008201527f6e6572206e6f7220617070726f76656420666f7220616c6c0000000000000000602082015250565b7f4552433732313a2062616c616e636520717565727920666f7220746865207a6560008201527f726f206164647265737300000000000000000000000000000000000000000000602082015250565b7f4552433732313a206f776e657220717565727920666f72206e6f6e657869737460008201527f656e7420746f6b656e0000000000000000000000000000000000000000000000602082015250565b7f4e6f7420656e6f756768204e4654730000000000000000000000000000000000600082015250565b7f4552433732313a206d696e7420746f20746865207a65726f2061646472657373600082015250565b7f4e6f206574686572206c65667420746f20776974686472617700000000000000600082015250565b7f4552433732313a20617070726f76656420717565727920666f72206e6f6e657860008201527f697374656e7420746f6b656e0000000000000000000000000000000000000000602082015250565b7f4f776e61626c653a2063616c6c6572206973206e6f7420746865206f776e6572600082015250565b7f4552433732314d657461646174613a2055524920717565727920666f72206e6f60008201527f6e6578697374656e7420746f6b656e0000000000000000000000000000000000602082015250565b7f4552433732313a20617070726f76616c20746f2063757272656e74206f776e6560008201527f7200000000000000000000000000000000000000000000000000000000000000602082015250565b50565b7f5472616e73666572206661696c65642e00000000000000000000000000000000600082015250565b7f4552433732313a207472616e736665722063616c6c6572206973206e6f74206f60008201527f776e6572206e6f7220617070726f766564000000000000000000000000000000602082015250565b7f455243373231456e756d657261626c653a20676c6f62616c20696e646578206f60008201527f7574206f6620626f756e64730000000000000000000000000000000000000000602082015250565b6141ed81613949565b81146141f857600080fd5b50565b6142048161395b565b811461420f57600080fd5b50565b61421b81613967565b811461422657600080fd5b50565b614232816139b3565b811461423d57600080fd5b5056fea26469706673582212204030e49526b443e2faa9034ea01f91943d1ed61ae641757f80df9e5109b11fd264736f6c63430008040033",
  "linkReferences": {},
  "deployedLinkReferences": {}
}